:100000000C94B8000C94570D0C94870D0C94D500EB
:100010000C94D5000C94D5000C94D5000C94D5000C
:100020000C94D5000C94D5000C94D5000C94B70D0D
:100030000C94D5000C94D5000C94D5000C94D500EC
:100040000C94D5000C94D5000C94D5000C94D500DC
:100050000C94D5000C94D5000C94D5000C94D500CC
:100060000C94D5000C94D5001C0D210D260D2B0DE4
:10007000300D350D3A0D00407A10F35A00A0724E43
:1000800018090010A5D4E80000E87648170000E43D
:100090000B54020000CA9A3B000000E1F505000085
:1000A00080969800000040420F000000A0860100EA
:1000B0000000102700000000E803000000006400BA
:1000C000000000000A000000000001000000000025
:1000D0002C76D888DC674F0823DFC1DFAE59E1B149
:1000E000B796E5E3E453C63AE651997696E8E6C258
:1000F0008426EB898C9B62ED407C6FFCEFBC9C9F5F
:1001000040F2BAA56FA5F490055A2AF75C936B6C80
:10011000F9676DC11BFCE0E40D47FEF520E6B50074
:10012000D0ED902E0300943577050080841E0800E2
:1001300000204E0A000000C80C333333330F986E92
:1001400012831141EF8D2114893BE65516CFFEE64F
:10015000DB18D1844B381BF77C1D901DA4BBE42415
:10016000203284725E228100C9F124ECA1E53D2792
:1001700011241FBECFEFD8E0DEBFCDBF14E0A0E05A
:10018000B1E0E8E0F4E202C005900D92A034B107BE
:10019000D9F726E0A0E4B4E001C01D92A137B20770
:1001A000E1F70E94F20C0C9402120C94000080FF04
:1001B00002C0449A01C0449881FF02C0439A01C022
:1001C000439882FF02C0429A01C0429883FF02C056
:1001D000419A089541980895CF93C82F459A8295E2
:1001E0008F700E94D7004598459A8C2F0E94D700A7
:1001F000459880E58A95F1F7CF91089558980E9427
:10020000EC000895589A0E94EC000895CF93DF9374
:10021000EC018881882331F021960E9402018991A6
:100220008111FBCFDF91CF91089590E4699F800DFC
:10023000112480680E94FE00089581E00E94FE0063
:100240008FEC97E00197F1F700C00000089582E07D
:100250000E94FE008FEC97E00197F1F700C00000CC
:100260000895CF933C9A3B9A3A9A399A3D9A509A7C
:1002700087E99AE30197F1F700C000005898459884
:10028000C3E0459A83E00E94D700459887E893E150
:100290000197F1F700C00000C15099F7459A82E03C
:1002A0000E94D700459887EE93E00197F1F700C0D0
:1002B000000088E20E94FE0088E00E94FE0081E0CB
:1002C0000E94FE008FEC97E00197F1F700C000005C
:1002D00086E00E94FE008CE00E94FE00CF9108950F
:1002E0008CE284B985B980E58CBD08958EBD0DB4CE
:1002F00007FEFDCF8EB50895CF93DF93DAE0CD2FC3
:100300008FEF0E947601C150D9F72A9880E40E94AD
:10031000760180E00E94760180E00E94760180E014
:100320000E94760180E00E94760185E90E947601B4
:100330008F3F29F48FEF0E9476018F3FD9F32A9ADD
:100340008130E9F68FEF0E9476012A9887E70E94B4
:10035000760180E00E94760180E00E94760180E0D4
:100360000E94760180E00E9476018FEF0E94760164
:10037000C82F8F3F31F48FEF0E947601C82F8F3F37
:10038000D1F32A9A8FEF0E947601C450C23008F44C
:1003900067C02A9889E60E94760180E00E94760173
:1003A00080E00E94760180E00E94760180E00E9459
:1003B00076018FEF0E947601C82F8F3F31F48FEFC7
:1003C0000E947601C82F8F3FD1F32A9A8FEF0E94A7
:1003D0007601C111BACF44C02A9881E40E94760107
:1003E00080E00E94760180E00E94760180E00E9419
:1003F000760180E00E9476018FEF0E947601CF3F68
:1004000031F48FEF0E947601C82F8F3FD1F32A9AE3
:100410008FEF0E947601C111DFCFCFEF2A9880E5E0
:100420000E94760180E00E94760180E00E947601C1
:1004300082E00E94760180E00E9476018FEF0E94A8
:100440007601CF3F31F48FEF0E947601C82F8F3FA6
:10045000D1F32A9A8FEF0E947601C111DFCF02C03B
:10046000CFEFBACF80E094E4DF91CF910895EF927F
:10047000FF920F931F93CF93DF937C018B018FEF3C
:100480000E9476012A9881E50E947601E70184E0C6
:10049000E80EF11C89910E947601CE15DF05D1F797
:1004A0008FEF0E9476018F3F29F48FEF0E94760133
:1004B0008F3FD9F3882319F090E09F5927C08FEF21
:1004C0000E9476018F3FE9F48FEF0E9476018F3F03
:1004D000D9F317C090E09E5919C08FEF0E947601A2
:1004E0008993C017D107C9F78FEF0E9476018FEF6C
:1004F0000E9476012A9A8FEF0E94760180E093E6AF
:1005000005C08E3F39F7E8011E5FE7CFDF91CF913D
:100510001F910F91FF90EF9008950E941D010E947E
:10052000270180E091E00E94060161E080E00E94E6
:1005300015018BE191E00E9406012FEF89E698E119
:10054000215080409040E1F700C000001092460624
:1005500088E10E94FE002FEF83EC99E0215080405B
:100560009040E1F700C00000809146068F5F8093C5
:1005700046068A3068F314C088E10E94FE002FEF1F
:1005800083EC99E0215080409040E1F700C00000EA
:10059000809146068F5F809346068A3068F3BDCF10
:1005A0000E941D010E94270186E391E00E9406013E
:1005B00061E080E00E94150181E591E00E94060162
:1005C0002FEF89E698E1215080409040E1F700C08C
:1005D000000010924606D0CF109241040E941D01E7
:1005E0000E9427018CE691E00E94060161E080E014
:1005F0000E94150180914104813059F028F0823029
:1006000069F0833081F014C08DE791E00E9406010B
:1006100022C08EE891E00E9406011DC08EE991E0A3
:100620000E94060118C08FEA91E00E94060113C0E3
:100630000E941D010E94270180EC91E00E940601AA
:100640002FEF89E698E1215080409040E1F700C00B
:100650000000109241042FE78AE196E0215080408B
:100660009040E1F700C000004F992EC02FE788E3CB
:1006700091E0215080409040E1F700C000004F9988
:1006800023C080914104813041F008F445C082309C
:1006900009F444C0833019F004C082E0089586E074
:1006A00008950E941D010E94270188ED91E00E949B
:1006B00006012FEF89E698E1215080409040E1F754
:1006C00000C00000109241044D9912C02FE788E34A
:1006D00091E0215080409040E1F700C000004D992A
:1006E00007C0809141048F5F8370809341047ECF67
:1006F0004E99BACF2FE788E391E021508040904097
:10070000E1F700C000004E99AFCF809141048150C5
:100710008370809341046ACF83E0089581E0089557
:100720008F929F92AF92BF92CF92DF92EF92FF9201
:100730000F931F93CF93DF9310924104ECE7F0E007
:1007400080818F7D8083CAE7D0E00F2EF8E7EF2EFF
:10075000F12CF02DA12CB12C0F2EF0E3CF2EF02D8B
:100760000F2EF1ECDF2EF02D0E941D010E942701BB
:1007700080914104813081F138F0823009F454C015
:10078000833009F479C085C08DEE91E00E940601A6
:1007900061E080E00E941501609144067091450679
:1007A00080E090E00E94610E20E030E041E655E4F8
:1007B0000E94EF0D07E416E022E044E00E94290FBA
:1007C000C8010E94060161E085E00E9415018EEFDC
:1007D00091E00E94060170C080E092E00E94060154
:1007E00061E080E00E94150160916F0670917006D3
:1007F00080E090E00E94610E20E030E041E655E4A8
:100800000E94EF0D07E416E022E044E00E94290F69
:10081000C8010E94060161E085E00E9415018EEF8B
:1008200091E00E94060148C081E192E00E94060129
:1008300061E080E00E9415016091420470914304E0
:1008400080E090E00E94610E20E030E041E655E457
:100850000E94EF0D07E416E022E044E00E94290F19
:10086000C8010E94060161E085E00E9415018EEF3B
:1008700091E00E94060120C082E292E00E940601FF
:1008800061E080E00E94150183E392E00E9406018E
:1008900013C00E941D010E94270180EC91E00E947C
:1008A00006012FEF89E698E1215080409040E1F762
:1008B00000C00000109241044E99C2C0EFE7F8E377
:1008C00021E0E150F0402040E1F700C000004E99E7
:1008D000B7C080914104833051F560914406709116
:1008E000450682E090E00E94DF1160916F067091F2
:1008F000700684E090E00E94DF11609142047091E4
:10090000430486E090E00E94DF110E941D010E94D6
:10091000270184E492E00E9406018FEF99E6E8E166
:1009200081509040E040E1F700C000000CC1888198
:1009300080648883888186FDFDCF80914104813069
:10094000E9F018F0823081F145C0F70160817181D2
:100950000024769567950794769567950794762F8A
:10096000602D709345066093440680E090E00E94FD
:10097000610E862E972E082F192F43C0F701608134
:10098000718162957295707F7627607F762770936C
:10099000700660936F0680E090E00E94610E862EE4
:1009A000972E082F192F2DC0F70160817181629554
:1009B0007295707F7627607F7627709343046093EB
:1009C000420480E090E00E94610E862E972E082F50
:1009D000192F17C00E941D010E94270185E592E092
:1009E0000E940601FFEF29E688E1F1502040804097
:1009F000E1F700C00000109241048A2C9B2C0C2DC2
:100A00001D2D61E08AE00E94150120E030E041E602
:100A100055E4682D792D802F912F0E94EF0D07E46A
:100A200016E022E044E00E94290FC8010E9406015E
:100A300061E08FE00E9415018EEF91E00E940601B7
:100A40004D9912C09FE7E8E3F1E09150E040F0409B
:100A5000E1F700C000004D9907C0809141048F5F0D
:100A600083708093410480CE4F9926CF2FE788E38F
:100A700091E0215080409040E1F700C000004F9984
:100A80005CC081E0809346060E941D010E94270100
:100A900086E692E00E94060161E080E00E94150176
:100AA00089E792E00E940601EFEFF4E32CE0E150C9
:100AB000F0402040E1F700C000004E9924C08FE7CD
:100AC00098E3E1E081509040E040E1F700C0000091
:100AD0004E9919C082E090E00E94D911909345068A
:100AE0008093440684E090E00E94D91190937006B0
:100AF00080936F0686E090E00E94D91190934304A2
:100B00008093420420C04D990BC0FFE728E381E0A9
:100B1000F15020408040E1F700C000004D9B0DC027
:100B200088E10E94FE009FE7EAE1F6E09150E04094
:100B3000F040E1F700C00000C0CF80914606813050
:100B400009F0BACE11CE80E0DF91CF911F910F91C5
:100B5000FF90EF90DF90CF90BF90AF909F908F90DD
:100B60000895EF92FF920F931F93CF93DF9310920C
:100B70004104ECE7F0E0808180628083CAE7D0E046
:100B800009E710E00F2EF3E6EF2EF02DFE2C0E9469
:100B90001D010E9427011092460680914004811198
:100BA0001CC070C090E001969C01220F331F820F81
:100BB000931F419794F02FEF83EC99E021508040F0
:100BC0009040E1F700C0000088E10E94FE0088E14B
:100BD0000E94FE0088E10E94FE00E0914606F0E0DF
:100BE000ED59F94F80818A3020F489E191E00E942B
:100BF0000601E0914606F0E0ED59F94F80814AE0A8
:100C000067E476E090E00E94490F0E94060189E1C6
:100C100091E00E940601809146068F5F8093460610
:100C200090914004891708F4BDCF9C30D0F00E9409
:100C30001D010E9427018EE992E00E94060161E0F9
:100C400080E00E9415018FEA92E00E940601EFEF1A
:100C5000FEE924E2E150F0402040E1F700C000004E
:100C60009AC0292F30E0A901440F551F240F351FCA
:100C7000213131053CF0892F880F980F9F509093B8
:100C8000460602C01092460661E0809146060E9428
:100C9000150180EC92E00E940601888180648883BF
:100CA000888186FDFDCFF801808186958F5F84362F
:100CB00018F48093410402C0E092410480914606FA
:100CC00061E0835F0E941501809141044AE067E47E
:100CD00076E090E00E94490F0E94060188E191E0D1
:100CE0000E9406014E9930C0FFE728E381E0F150F1
:100CF00020408040E1F700C000004E9925C0888167
:100D000080648883888186FDFDCFF8018081869587
:100D10008F5F843618F48093410402C0F09241043E
:100D20008091460661E0835F0E9415018091410435
:100D30004AE067E476E090E00E94490F0E940601D5
:100D400088E191E00E9406014D9918C0FFE728E371
:100D500081E0F15020408040E1F700C000004D9953
:100D60000DC080914004E82FF0E0ED59F94F9091CB
:100D7000410490838F5F8093400409CF4F99B2CF95
:100D80009FE7E8E3F1E09150E040F040E1F700C078
:100D900000004F99A7CF84E0DF91CF911F910F9171
:100DA000FF90EF900895CF93E3E6F6E08FE696E0AC
:100DB0001192E817F907E1F78CE0809346060E944C
:100DC000E60D80EA9CE80E94DC0D1092410410922E
:100DD00040041092850010928400109246060E94F2
:100DE0001D010E9427018AEC92E00E94060161E049
:100DF00080E00E94150180EE92E00E9406012FEF34
:100E000084E39CE0215080409040E1F700C0000066
:100E1000C0914606C1113FC04E990FC02FE788E32D
:100E200091E0215080409040E1F700C000004E99D1
:100E300004C081E0809346062EC04D990FC02FE775
:100E400088E391E0215080409040E1F700C000002D
:100E50004D9904C082E0809346061DC04F990BC097
:100E60002FE788E391E0215080409040E1F700C0F7
:100E700000004F9BD2C188E10E94FE002FE78AE16B
:100E800096E0215080409040E1F700C00000909132
:100E90004606992309F2289A80914606823009F085
:100EA000AAC00E941D010E94270183E093E00E94D6
:100EB000060161E080E00E94150187E193E00E9455
:100EC000060183C00E941D010E9427018BE293E06E
:100ED0000E94060161E080E00E94150186E493E033
:100EE0000E9406012FEF89E698E121508040904052
:100EF000E1F700C000001092460688E10E94FE0063
:100F00002FEF83EC99E0215080409040E1F700C042
:100F100000004D990FC02FE788E391E021508040F9
:100F20009040E1F700C000004D9904C081E080933B
:100F3000410450C0809146068F5F809346068A30F8
:100F4000E0F280914104813009F444C00E941D0107
:100F50000E94270181E693E00E94060161E080E0A3
:100F60000E94150180E893E00E9406012FEF89E6B8
:100F700098E1215080409040E1F700C000001092BD
:100F8000460688E10E94FE002FEF83EC99E0215095
:100F900080409040E1F700C000004D990FC02FE75E
:100FA00088E391E0215080409040E1F700C00000CC
:100FB0004D9904C081E08093410407C080914606AA
:100FC0008F5F809346068831E0F280914104882348
:100FD00009F478CF0E941D010E94270189EA93E05D
:100FE0000E94060161E080E00E94150187E193E024
:100FF0000E94060125C00E941D010E94270183E076
:1010000093E00E94060161E080E00E94150187E103
:1010100093E00E9406011092460688E10E94FE00BD
:101020002FEF83EC99E0215080409040E1F700C021
:101030000000809146068F5F80934606843068F3F7
:101040008FEF809346061092410485E080938100E3
:101050007894809141048D7F813069F0F8948FE01D
:1010600097E20197F1F700C0000078948091410465
:101070008D7F813099F7809141048250823068F0F1
:10108000F8948FE097E20197F1F700C000007894A0
:10109000809141048250823098F778943FC081302B
:1010A000D9F4F89420915B0630915C06809142045B
:1010B000909143048217930758F48091460691E07B
:1010C000980F909346069C3071F18E5F8093400498
:1010D00010924104789422C0823001F5F894209156
:1010E0005B0630915C0680916F06909170068217C6
:1010F000930748F4E0914606F0E0ED59F94F8081FE
:10110000865F808308C0E0914606F0E0ED59F94F14
:1011100080818F5F80831092410478948091410494
:10112000833009F0BCCFF89428980E941D010E94DA
:1011300027018AEB93E00E94060161E080E00E94B3
:1011400015019FEF23EC89E0915020408040E1F7AA
:1011500000C0000080914004811105C08EEC93E036
:101160000E9406012CC010924606809140048823FC
:1011700031F1E0E0F0E0ED59F94F80818A3020F460
:1011800089E191E00E940601E0914606F0E0ED5908
:10119000F94F80814AE067E476E090E00E94490FD1
:1011A0000E94060189E191E00E940601E091460655
:1011B000EF5FE093460680914004E817D8F24D991E
:1011C0001EC09FE728E381E0915020408040E1F776
:1011D00000C000004D9913C08091400490E09C0134
:1011E000220F331F820F931F41974CF088E10E941A
:1011F000FE0088E10E94FE0088E10E94FE004F99F7
:10120000DECF9FE728E381E0915020408040E1F766
:1012100000C000004F99D3CFC4E08C2FCF91089528
:101220000E941D010E9427018FED93E00E9406019C
:1012300061E080E00E94150183EF93E00E940601C7
:101240002FEF84E39CE0215080409040E1F700C004
:1012500000004E990BC02FE788E391E021508040B9
:101260009040E1F700C000004E9B27C04D990BC095
:101270002FE788E391E0215080409040E1F700C0E3
:1012800000004D9B1CC04F990BC02FE788E391E0F5
:10129000215080409040E1F700C000004F9B11C0FA
:1012A00088E10E94FE002FE78AE196E0215080400D
:1012B0009040E1F700C00000CCCF85E0089586E0C3
:1012C000089580E008956F927F928F929F92AF92DF
:1012D000BF92CF92DF92EF92FF920F931F93CF9323
:1012E000DF930E941D010E94270119990EC084E11D
:1012F00094E00E9406012FEF8EE994E22150804095
:101300009040E1F700C000005DC30E9470010E94A0
:101310007C01EFE5F6E0138282E08083818386E042
:10132000828384E08093460664E474E0CF010E94E7
:10133000370290935E0680935D06D0906304ED2C97
:10134000109241040E941D010E9427018FE194E048
:101350000E94060161E080E00E941501C0914104F5
:10136000E0E2CE9FE0011124CE014096C817D907D4
:10137000E0F4FE01EC5BFB4F80818A33B1F08E011B
:101380000B5B1B4F05C0F80181918F018A3369F017
:101390000E940201219680914104F0E28F9FC001DA
:1013A00011244096C817D90770F30E2C000CFF08C3
:1013B000DA944F997DC02FE788E391E02150804077
:1013C0009040E1F700C000004F9972C0E0914104E5
:1013D00020E2E29FF0011124A7E5B6E0EC5BFB4FB1
:1013E000838D8E5F8C93848D8E5F11968C93119775
:1013F000858D8E5F12968C931297868D13968C93A3
:101400008FEF809341040E9427018FE294E00E94B5
:1014100006018FEF99E6E8E181509040E040E1F766
:1014200000C000001092410480916306F0E48F9F99
:10143000C0011124892F8E7F10925D0680935E0675
:10144000EFE5F6E0A7E5B6E09C91908311969C91BC
:101450001197918312969C911297890F828313960C
:101460008C91838364E474E0CF010E9437020E9470
:101470001D010E942701E0914104F0E0ED59F94F70
:10148000C08120E4C29FE0011124C07CD170CE0154
:101490004096C817D90708F05DC2FE01EC5BFB4F10
:1014A0008081803208F453C28E010B5B1B4FA7C0B2
:1014B0004E994CC08FE798E3E1E081509040E040C6
:1014C000E1F700C000004E9941C0809141048F5F58
:1014D00090E0B7010E94FB0E8093410461E080E040
:1014E0000E941501C0914104F0E2CF9FE001112458
:1014F000CE014096C817D90748F5FE01EC5BFB4FBB
:1015000080818A3399F405C0F80181918F018A3373
:1015100081F480E20E94020180E20E94020180E2E6
:101520000E94020180E20E94020110C08E010B5B4A
:101530001B4F0E940201219680914104F0E28F9F8F
:10154000C00111244096C817D907F0F24D9931CF48
:101550002FE788E391E0215080409040E1F700C000
:1015600000004D9926CF80914104815018F080935E
:10157000410402C0D092410461E080E00E94150164
:1015800061E080E00E94150100914104E0E20E9FBD
:1015900080011124C80140960817190708F009CFE7
:1015A000F801EC5BFB4F80818A3389F403C0899199
:1015B0008A3381F480E20E94020180E20E940201EB
:1015C00080E20E94020180E20E940201F2CEE80164
:1015D000CB5BDB4F0E9402010F5F1F4F80914104E4
:1015E000F0E28F9FC0011124409608171907F8F206
:1015F000E0CEF80181918F01803208F4A8C10E94E9
:1016000002012196E0914104F0E0ED59F94F80810B
:10161000F0E48F9FC0011124807C91704096C81720
:10162000D90738F397C1FE01EC5BFB4F8081803214
:10163000E8F00B5A1B4F05C0F80181918F018032F1
:10164000C0F00E9402012196E0914104F0E0ED59C2
:10165000F94F8081F0E48F9FC0011124807C91704C
:101660008096C817D90740F3712C05C077247A9467
:1016700002C077247A942FE78AE196E021508040D7
:101680009040E1F700C0000066246A940F2EFFE549
:10169000CF2EF6E0DF2EF02D0F2EF7E5AF2EF6E081
:1016A000BF2EF02D4F990BC0EFE7F8E321E0E1509A
:1016B000F0402040E1F700C000004F9B83C14E99ED
:1016C000A0C08FE798E3E1E081509040E040E1F76F
:1016D00000C000004E9995C00E941D010E94270184
:1016E0007394F72D20E1F20270011124E09141047E
:1016F000F0E0ED59F94F8081E0E48E9FC0011124A4
:10170000807C91704701880E991EE70160968C0FCE
:101710009D1F8816990638F5F401EC5BFB4F80811C
:10172000803208F431C184010B5B1B4F06C0F80105
:1017300081918F01803208F427C10E940201FFEFDE
:101740008F1A9F0AE0914104F0E0ED59F94F808132
:1017500020E4829FC0011124807C91708C0F9D1F1A
:101760008816990620F38FEF781609F441C061E0DE
:1017700080E00E941501E0914104F0E0ED59F94F3D
:101780008081E0E48E9FC0011124807C9170C80F9D
:10179000D91FF0E2EF0EF11C8E0D9F1DC817D9075F
:1017A00038F5FE01EC5BFB4F80818032F0F08E015A
:1017B0000B5B1B4F05C0F80181918F018032B8F09F
:1017C0000E9402012196E0914104F0E0ED59F94FA9
:1017D0008081F0E48F9FC0011124807C91708E0D78
:1017E0009F1DC817D90738F303C0762C01C0762C8B
:1017F0002FE78AE196E0215080409040E1F700C059
:1018000000004D994FCFEFE7F8E321E0E150F040C1
:101810002040E1F700C000004D9944CF8091410481
:101820008F5F609140040E94EF0E90934104E92F76
:10183000F0E0ED59F94F8081E0E48E9FC001112462
:10184000892F8E7F10925D0680935E06F501908150
:10185000F6019083F5019181F6019183F501928162
:10186000890FF6018283F5018381F601838364E4A5
:1018700074E0C6010E9437020E941D010E942701E8
:10188000E0914104F0E0ED59F94FC081F0E4CF9FC1
:10189000E0011124C07CD170CE014096C817D90751
:1018A00008F074C0FE01EC5BFB4F8081803208F4CD
:1018B00087C08E010B5B1B4F06C0F80181918F0121
:1018C000803208F47DC00E9402012196E09141041B
:1018D000F0E0ED59F94F8081F0E48F9FC0011124B1
:1018E000807C91704096C817D90738F34FC0FE012D
:1018F000EC5BFB4F80818032E8F00B5A1B4F05C038
:10190000F80181918F018032B8F00E940201219686
:10191000E0914104F0E0ED59F94F8081F0E48F9FB0
:10192000C0011124807C91708096C817D90740F3BC
:10193000712C03C0762C01C0762C2FE78AE196E04B
:10194000215080409040E1F700C00000ABCE7724EA
:101950007A9491CE61E080E00E941501E09141040B
:10196000F0E0ED59F94F0081E0E40E9F8001112471
:10197000007C1170E8016096C8018096C817D907ED
:1019800008F451CE712C77CE762C32CF61E080E016
:101990000E941501E0914104F0E0ED59F94F0081FA
:1019A000F0E40F9F80011124007C1170E801609623
:1019B000C8018096C817D90708F499CF712CBDCFFC
:1019C000762CBBCF86E0DF91CF911F910F91FF90D6
:1019D000EF90DF90CF90BF90AF909F908F907F90CF
:1019E0006F9008950E94D10D0E94C80D0E94310190
:1019F00082E090E00E94D9119093450680934406BE
:101A000084E090E00E94D9119093700680936F0655
:101A100086E090E00E94D9119093430480934204A1
:101A2000E09141048E2F90E08730910528F5FC016C
:101A3000EC5CFF4F0C940F0F0E94EC02809341046A
:101A40002CC00E9490038093410427C00E94B105DE
:101A50008093410422C00E94D306809341041DC09C
:101A60000E9410098093410418C00E94630980936A
:101A7000410413C00E948D020E941D010E94270193
:101A800080EC91E00E9406012FEF89E698E1215059
:101A900080409040E1F700C000002FEF84E39CE01D
:101AA000215080409040E1F700C00000B9CF1F9264
:101AB0000F920FB60F9211248F939F93AF93BF9302
:101AC000EF93FF93E1E8F0E01082A4E8B0E08D919D
:101AD0009C91119790935C0680935B0611961C92E3
:101AE0001E9285E0808381E08093410487EB9BE038
:101AF0000197F1F700C00000FF91EF91BF91AF9106
:101B00009F918F910F900FBE0F901F9018951F926D
:101B10000F920FB60F9211248F939F93AF93BF93A1
:101B2000EF93FF93E1E8F0E01082A4E8B0E08D913C
:101B30009C91119790935C0680935B0611961C9282
:101B40001E9285E0808382E08093410487EB9BE0D6
:101B50000197F1F700C00000FF91EF91BF91AF91A5
:101B60009F918F910F900FBE0F901F9018951F920D
:101B70000F920FB60F9211248F931092810083E081
:101B8000809341048F910F900FBE0F901F90189576
:101B90002198299A57988BB1806E8BB95398209AC7
:101BA0000895EAE7F0E0808180688083EEE7F0E066
:101BB000808181608083089590938900809388005C
:101BC000EFE6F0E08081826080830895E9E6F0E04E
:101BD00080818B6080838DB383608DBB08950E946C
:101BE000030E0C94B50E0E94AE0E58F00E94A70E84
:101BF00040F029F45F3F29F00C949E0E51110C9493
:101C0000E90E0C94A40E0E94C60E68F39923B1F35A
:101C1000552391F3951B550BBB27AA276217730712
:101C2000840738F09F5F5F4F220F331F441FAA1FA6
:101C3000A9F335D00E2E3AF0E0E832D09150504062
:101C4000E695001CCAF72BD0FE2F29D0660F771F10
:101C5000881FBB1F261737074807AB07B0E809F0F6
:101C6000BB0B802DBF01FF2793585F4F3AF09E3F7B
:101C7000510578F00C949E0E0C94E90E5F3FE4F34E
:101C8000983ED4F3869577956795B795F7959F5FBE
:101C9000C9F7880F911D9695879597F90895E1E00A
:101CA000660F771F881FBB1F621773078407BA0769
:101CB00020F0621B730B840BBA0BEE1F88F7E095C4
:101CC0000895E89409C097FB3EF49095809570952F
:101CD00061957F4F8F4F9F4F9923A9F0F92F96E978
:101CE000BB279395F695879577956795B795F111ED
:101CF000F8CFFAF4BB0F11F460FF1BC06F5F7F4F8A
:101D00008F4F9F4F16C0882311F096E911C077239B
:101D100021F09EE8872F762F05C0662371F096E8A4
:101D2000862F70E060E02AF09A95660F771F881F73
:101D3000DAF7880F9695879597F9089597F99F6731
:101D400080E870E060E008959FEF80EC0895002443
:101D50000A941616170618060906089500240A9410
:101D600012161306140605060895092E0394000C96
:101D700011F4882352F0BB0F40F4BF2B11F460FF25
:101D800004C06F5F7F4F8F4F9F4F089557FD90584E
:101D9000440F551F59F05F3F71F04795880F97FB2F
:101DA000991F61F09F3F79F08795089512161306E9
:101DB0001406551FF2CF4695F1DF08C01616170618
:101DC0001806991FF1CF869571056105089408954D
:101DD000E894BB2766277727CB0197F90895991BCD
:101DE00079E004C0991F961708F0961B881F7A9512
:101DF000C9F78095089597FB072E16F4009407D035
:101E000077FD09D00E94150F07FC05D03EF4909590
:101E100081959F4F0895709561957F4F0895EE0FBE
:101E2000FF1F0590F491E02D0994AA1BBB1B51E103
:101E300007C0AA1FBB1FA617B70710F0A61BB70B3A
:101E4000881F991F5A95A9F780959095BC01CD01DF
:101E50000895EF920F931F93CF93DF93E80147FD0F
:101E600002C034E001C034E1E42F440FFF0BF7FF60
:101E700003C0F195E195F109E32E022F2E2FAE015B
:101E80000E94630FCE01DF91CF911F910F91EF90D0
:101E90000895BB27FB015527AA27880F991FAA1F62
:101EA000A41710F0A41B83955051B9F7A05DAA3375
:101EB00008F0A95DA193009779F7B111B193119240
:101EC000CB010C94C9114F925F926F927F929F92B7
:101ED000AF92BF92CF92DF92EF92FF920F931F9338
:101EE000CF93DF93CDB7DEB729970FB6F894DEBF57
:101EF0000FBECDBF6A01122FB02E2BE3201720F0AA
:101F0000FF24F394F00E02C0BCE3FB2E0F2D27E05C
:101F1000AE014F5F5F4F0E94F110AC018981982F95
:101F20009970913031F0E1FC06C0E0FE06C090E20D
:101F300005C09DE203C09BE201C090E0EE2DE07180
:101F400083FF3CC0911102C083E001C084E081178F
:101F500018F4212F281B01C020E0E1110BC0F6016D
:101F6000822F30E2882319F031938150FBCFC20ECB
:101F7000D11C20E0992329F0D6019C93F6013196DB
:101F80006F01C6010396E2FE0AC03EE4D6013C930F
:101F900041E411964C93119712963C9306C03EE68D
:101FA000F601308341E641833283FC01322F40E267
:101FB000332309F442C041933150FACF82FF44C029
:101FC000911102C083E001C084E0811718F4212F31
:101FD000281B01C020E0E1110BC0F601822F30E286
:101FE000882319F031938150FBCFC20ED11C20E021
:101FF000992329F0D6019C93F60131966F01C60111
:102000000396E2FE0BC039E4D6013C933EE4119600
:102010003C93119736E412963C9307C039E6F601DB
:1020200030833EE6318336E63283FC01322F40E2D4
:10203000332319F041933150FBCFFC01E20FF11D26
:1020400010828EEF9FEFB7C0F1E0911101C0F0E078
:102050006F2F70E01416150624F49A012F5F3F4F7E
:1020600002C021E030E0260F371FBB2029F06B2D86
:1020700070E06F5F7F4F02C060E070E0260F371F97
:10208000612F70E0261737071CF4121B212F01C0A7
:1020900020E03E2D387159F4D601322F60E233230F
:1020A00019F06D933150FBCFC20ED11C20E0FF23FD
:1020B00031F0D6019C93B6016F5F7F4F6B01E11148
:1020C0000BC0F601922F30E3992319F03193915010
:1020D000FBCFC20ED11C20E09F2D940F3A81782FA8
:1020E0007071A72E84FF03C0313309F49150191683
:1020F00024F4993018F098E001C091E0E42F852F86
:1021000057FF02C0E0E080E06E2F782FE0E0F0E0C3
:10211000AEE29A2E3A01691A71082A01461A570A44
:102120000B2D10E01195019511096F3F8FEF780786
:1021300029F4D6019C92C60101966C0146175707F7
:1021400084F0661677066CF47F01E40CF51CA1E0C0
:10215000B0E0AC0FBD1FEA0EFB1ED7011196BC907C
:1021600002C090E3B92E615071093196C601019603
:102170007C016017710724F0D601BC926C01D5CFA9
:102180006417750741F4363320F4353321F4A11078
:1021900002C081E3B82EF601B082F701822F90E2EF
:1021A000882319F091938150FBCFF701E20FF11DC5
:1021B000108280E090E029960FB6F894DEBF0FBE43
:1021C000CDBFDF91CF911F910F91FF90EF90DF90E6
:1021D000CF90BF90AF909F907F906F905F904F9007
:1021E0000895283008F027E03327DA01990F311DD0
:1021F00087FD916000966105710539F432602E5FAC
:102200003D9330E32A95E1F708959F3F30F0803801
:102210007105610509F03C5F3C5F3D93913008F02A
:102220008068911DDF93CF931F930F93FF92EF92DE
:10223000192F987F9695E92F96959695E90FFF2788
:10224000E053FF4F99273327EE24FF24A701E7012E
:1022500005900894079428F4360FE71EF81E491FCE
:10226000511D660F771F881F991F0694A1F70590CF
:10227000079428F4E70EF81E491F561FC11D770F5B
:10228000881F991F661F0694A1F70590079428F4EC
:10229000F80E491F561FC71FD11D880F991F661FB3
:1022A000771F0694A1F70590079420F4490F561F55
:1022B000C71FD81F990F661F771F881F0694A9F79D
:1022C00084911095177041F0D695C795579547950D
:1022D000F794E7941A95C1F7E6E7F0E06894159053
:1022E000159135916591959105907FE27395E1186F
:1022F000F10A430B560BC90BD009C0F7E10CF11ED4
:10230000431F561FC91FD01D7EF4703311F48A95E8
:10231000E6CFE894015030F0080F0AF400270217C6
:1023200008F4202F2395022F7A3328F079E37D9348
:102330002A95E9F710C07D932A9589F6069497951A
:102340006795379517951794E118F10A430B560BCB
:10235000C90BD00998F023957E9173957A3308F0D4
:1023600070E37C932013B8F77E9170617D9330F019
:10237000839571E37D9370E32A95E1F71124EF9043
:10238000FF900F911F91CF91DF91992787FD909535
:102390000895DC01FC01672F71917723E1F73297F3
:1023A00004C07C916D9370836291AE17BF07C8F330
:1023B0000895A8E1B0E042E050E00C94E6110E94DC
:1023C000F411272F0C94F511DC01CB01FC01F999D4
:1023D000FECF06C0F2BDE1BDF89A319600B40D9271
:1023E00041505040B8F70895262FF999FECF1FBAF3
:1023F00092BD81BD20BD0FB6F894FA9AF99A0FBE2E
:0824000001960895F894FFCF46
:102408002A2A4B6F6E6965632070726163792A2A84
:102418002020202020202020202000312E57796CD9
:1024280061637A207A61706C6F6E20706F6A617A6E
:102438006164752E2000322E2057796C61637A20F2
:1024480075727A61647A656E69652E202020202075
:1024580000332E204F646C61637A2070727A65773E
:102468006F64792E2020202020202000577962696F
:1024780065727A2066756E6B636A6520004F6463C7
:102488007A7974206B6F646F772020202000507257
:102498007A65676C6164206B6F646F7720005A6D92
:1024A80069616E6120637A61736F77202020005A1A
:1024B800616B6F6E637A202020202020202020006E
:1024C800426C6164207779626F727520696E7374EB
:1024D80072756B636A692E00426C61642077796259
:1024E8006F72752066756E6B636A692E00437A6138
:1024F800733A2020202020204B4F4E434100730088
:10250800437A61733A2020204A45444E4F53434949
:1025180000437A61733A202020202050525A4552B5
:1025280057005A6170697361633F20202020202082
:102538002020005A69656C6F6E79203D2054414B0C
:1025480020202000202020205A41504953414E4F3E
:102558002020202000426C6164207779626F7275B8
:10256800202020202E0057796A7363652062657ADF
:10257800207A61706973753F005A69656C6F6E796E
:10258800203D2054414B20204E6965626965736B7C
:1025980069203D20414E554C554A202020004D6170
:1025A8006B73796D616C6E6120202020202000699A
:1025B8006C6F7363206B6F646F772020202020007E
:1025C8004E6F7779206B6F643A004B74F372792001
:1025D800747279622074657374753F20202020001E
:1025E8005A69656C6F6E79203D204B4F454F20200E
:1025F8004E6965626965736B69203D204B4F455292
:10260800202000576C61637A207A61706C6F6E20AD
:10261800706F6A617A2E00437A656B616A206E6119
:102628002020224B4F4E4945432200312E20576C23
:1026380061637A207A61706C6F6E20706F6A617A5C
:1026480064752E202000322E2050727A65637A65D8
:102658006B616A206B6F6479204B4F454F2E2020A9
:1026680000332E20576369736E696A206E6965624C
:102678006965736B692070727A796369736B2E0070
:10268800342E2055727563686F6D2073696C6E699E
:102698006B206920637A656B616A206E6120202255
:1026A8004B4F4E49454322200055727563686F6D44
:1026B8002073696C6E696B2E2000202020202A2A46
:1026C8002A4B4F4E4945432A2A2A2020200042728D
:1026D800616B20626C656E646F7720202020004457
:1026E800656B6F646F776163206B6F64793F20203F
:1026F8002020005A69656C6F6E79203D2054414B4B
:1027080020204E6965626965736B69203D204E49DA
:10271800452020004272616B204B6172747900572A
:1027280079626965727A20706F6A617A6420002A1A
:1027380057796272616E6F20706F6A617A642A00DD
:00000001FF
