:100000000C947D000C94A5000C94A5000C94A50004
:100010000C94A5000C94A5000C94A5000C94A500CC
:100020000C94A5000C94A5000C94A5000C94A500BC
:100030000C94A5000C94A5000C94A5000C94A500AC
:100040000C941D050C94A5000C9405080C9437081D
:100050000C94A5000C94A5000C94A5000C94A5008C
:100060000C94A5000C94A500CE02D20277027A026D
:100070007D0280028302860289028C028F02930233
:100080009602A402D602A702AA02AE02B102B502EB
:10009000B802BC02BF02C202C502C80200000008CA
:1000A000000201000003040700000000000000003F
:1000B00001020408102040800102040810200102FF
:1000C00004081020040404040404040402020202CC
:1000D00002020303030303030000000023002600C1
:1000E000290000000000250028002B00000000006F
:1000F000240027002A003001670811241FBECFEF1B
:10010000D8E0DEBFCDBF11E0A0E0B1E0ECE3F3E169
:1001100002C005900D92AE33B107D9F722E0AEE3ED
:10012000B1E001C01D92A330B207E1F710E0CAEFC1
:10013000D0E004C02297FE010E949809C63FD10773
:10014000C9F70E9464090C949C090C94000026E0F5
:1001500040E052EC61E070E086E691E00E94A30787
:1001600042E06CE08EE391E00E94710460E071E097
:1001700086E691E00E94EE0860E082E00E94280698
:1001800064EF71E080E090E00C948A050F931F9378
:10019000CF93DF9382E00E949706892B09F05BC022
:1001A0004FE451E067E571E08EE391E00E94AF0417
:1001B0008EE391E00E94E10460935801709359012D
:1001C00080935A0190935B016CE071E086E691E0C8
:1001D0000E94E808409158015091590160915A01DC
:1001E00070915B0120E130E086E691E00E944F09CA
:1001F00061E171E086E691E00E94E808CFE4D1E099
:100200008091570190E09E012F5431402817390703
:10021000D4F48E018881803130F46AE171E086E6A1
:1002200091E00E94E808219640E150E0F8016081E9
:1002300086E691E00E945C096FE071E086E691E05D
:100240000E94E808DDCF86E691E0DF91CF911F9113
:100250000F910C94EA08DF91CF911F910F910895AF
:100260006AE08EE391E00C9463048EBD00000DB44F
:1002700007FEFDCF8EB50895CF93DF93EC0160E0CC
:1002800088890E94610680EC0E94350161E08889BE
:100290000E9461066AE070E080E090E0DF91CF911B
:1002A0000C948A051F93CF93DF93EC01162F60E027
:1002B00088890E94610683E00E943501812F0E9497
:1002C000350180E00E943501182F61E088890E9485
:1002D0006106812FDF91CF911F910895CF92DF9218
:1002E000EF92FF920F931F93CF93DF9300D0CDB780
:1002F000DEB78C01E62EF22E60E0FC018089498396
:100300005A830E94610683E00E9435018E2D0E946F
:1003100035014981E42EC42E5A81D52E8C2D8E199B
:100320008F1538F480E00E943501F60181936F014A
:10033000F5CF61E0F80180890F900F90DF91CF91A8
:100340001F910F91FF90EF90DF90CF900C9461067A
:10035000EF92FF921F93CF93DF931F92CDB7DEB73B
:100360007C01162F60E0FC01808949830E946106B0
:1003700082E00E943501812F0E9435014981842F3E
:100380000E94350161E0F70180890F90DF91CF91E4
:100390001F91FF90EF900C946106CF92DF92EF9245
:1003A000FF920F931F93CF93DF9300D0CDB7DEB7AB
:1003B0008C01E62EF22E60E0FC01808949835A838D
:1003C0000E94610682E00E9435018E2D0E94350157
:1003D0004981E42EC42E5A81D52E8C2D8E198F156D
:1003E00030F4F60181916F010E943501F6CF61E092
:1003F000F80180890F900F90DF91CF911F910F919D
:10040000FF90EF90DF90CF900C946106EF92FF92F7
:100410001F93CF93DF9300D0CDB7DEB77C01162FAB
:1004200060E0FC0180892A8349830E94610685E09F
:100430000E943501812F0E9435014981842F0E943D
:1004400035012A81822F0E94350161E0F701808900
:100450000F900F90DF91CF911F91FF90EF900C9430
:1004600061061F93CF93DF93EC0160E088890E94BF
:10047000610680EA0E94350180E00E943501182F54
:1004800061E088890E946106812FDF91CF911F91E1
:1004900008951F93CF93DF93EC01162F262F40EE84
:1004A0006FE00E9406026FE0CE010E945201982F79
:1004B000907E81E0911301C080E0DF91CF911F9188
:1004C00008950F931F93CF93DF93EC01413019F000
:1004D000423079F161C0462F50E0FA013197ED309A
:1004E000F10508F059C0EC5CFF4F0C94960917E831
:1004F0000FEF5EC015E801EF5BC017E80FEF2CC0EF
:1005000017E80AEF29C017E80FEF2DC017E80AEF28
:100510002AC016E800EF27C017E80AEF2BC015E83D
:1005200001EF41E446C016E800EF34C012E800EDE8
:1005300031C0462F50E0FA013197ED30F10560F5FA
:10054000EF5BFF4F0C94960917E00FEB2DC017E0FF
:100550000FEB02C014E004EA47E02BC017E00FEBFA
:1005600002C016E004EB43E024C017E00FEB02C02A
:1005700016E004EB41E01DC015E001EBFBCF16E0F7
:1005800004EB08C015E001EB05C012E000E902C071
:1005900010E000E840E00DC081E01AC017E80FEF5E
:1005A0004FE307C017E80FEF4FE103C017E00FEB71
:1005B0004FE06AE2CE010E94A801402F69E2CE011D
:1005C0000E94A801412F68E2CE010E94A80180E0AC
:1005D000DF91CF911F910F9108950F931F93CF93A8
:1005E000DF9300D000D0CDB7DEB74130B1F40C833B
:1005F0001B83890122273327502F5C71402F4370C2
:1006000078E0579F400D112448604A8355E01695C5
:1006100007955A95E1F709830DC0A80123E0569587
:1006200047952A95E1F749830295000F007E0A83DA
:100630001C821B8224E0AE014F5F5F4F0E94CD0100
:100640000F900F900F900F90DF91CF911F910F910E
:1006500008950F931F93CF93DF93EC0100E010E018
:10066000980141E060E20E94ED0200E010E0980194
:1006700041E064E2CE010E94ED0200E010E098014A
:1006800041E060E0CE010E94ED0200E010E0980140
:1006900040E064E0CE010E94ED0200E010E098012D
:1006A00041E068E0CE010E94ED0200E010E0980118
:1006B00040E060E1CE010E94ED0200E010E0980110
:1006C00041E064E1CE010E94ED0200E010E09801FB
:1006D00040E068E1CE010E94ED0210E340E0612FAE
:1006E000CE010E94A80160E1610F40E0CE010E94AE
:1006F000A80160E2610F40E0CE010E94A8011F5FE7
:100700001E3361F740E060E6CE010E94A80140E0A0
:1007100060E7CE01DF91CF911F910F910C94A8015A
:10072000EF92FF920F931F93CF93DF931F92CDB75A
:10073000DEB77C01062F49830E943C0160E8C701B7
:100740000E944902182F4981811125C0602FC701DD
:100750000E94610281111FC0C7010E94290343E06A
:100760006BE2C7010E94A80124E044E660E6C701ED
:100770000E94060220E040E660E7C7010E940602F0
:1007800060E0C7010F90DF91CF911F910F91FF9013
:10079000EF900C944902812F0F90DF91CF911F9120
:1007A0000F91FF90EF900895EF92FF920F931F9398
:1007B000CF93DF9300D000D0CDB7DEB77A018901A7
:1007C000FA011082F901108211821282138224E050
:1007D000AE014F5F5F4F0E946E012A813981822FE7
:1007E00090E045E0959587954A95E1F7F8E03F9FC1
:1007F000800D911D1124AA2797FDA095BA2FF8010D
:1008000080839183A283B38323FF25C062E0880F96
:10081000991FAA1FBB1F6A95D1F72370820F911DE4
:10082000A11DB11DBA2FA92F982F88272B81820FC8
:10083000911DA11DB11DBA2FA92F982F88272C819A
:10084000820F911DA11DB11D80839183A283B3836B
:1008500081E0F70180830F900F900F900F90DF9150
:10086000CF911F910F91FF90EF9008950F931F93D9
:10087000CF93DF93EC01162F9C012F5F3F4FAC010C
:100880000E94D4036FEF610FCE010E945201082F26
:1008900064E0610FCE010E945201282F8D8303FF77
:1008A00003C081E08E8701C01E862F702D83AE01AC
:1008B0004A5F5F4F65E0610FCE01DF91CF911F91DD
:1008C0000F910C946E01CF93DF93EC01862F688B10
:1008D00061E00E94280661E08889DF91CF910C9445
:1008E0006106CF93DF9300D000D0CDB7DEB74C8345
:1008F0006B8389839A830E94E7044C816B81898191
:100900009A810E94900391E0811101C090E0892FAB
:100910000F900F900F900F90DF91CF910895CF938C
:10092000DF93EC010E94310280FF07C061E6CE0137
:100930000E94360420E041E008C081FF0CC061E75E
:10094000CE010E94360420E042E06CE2CE010E941B
:10095000060280E001C084E0DF91CF910895EF921C
:10096000FF920F931F93CF93DF9300D0CDB7DEB7E5
:100970007C018B0149835A830E948F04D70115960D
:100980008C91F80180834981E42F5A81F52F80E012
:1009900090E0D70115962C9130E08217930744F42C
:1009A000D701A80FB91F16962C9121930196F1CF6C
:1009B0000F900F90DF91CF911F910F91FF90EF90CB
:1009C0000895FC0161817281838194810895CF93A0
:1009D000CFB7F89480915C01811127C0EEECF0E074
:1009E0008491EAEBF0E09491E82FF0E0EE0FFF1F26
:1009F000E451FF4FA591B4918C91892321F461E0DA
:100A00008AE00E94610661E08AE00E9428068CB5B7
:100A100080618CBD8CB580648CBD61E08DE00E94EE
:100A2000280661E08BE00E94280680915C018F5FC0
:100A300080935C01CFBFCF9108951F920F920FB6A4
:100A40000F9211242F933F938F939F93AF93BF9354
:100A500080915E0190915F01A0916001B091610170
:100A600030915D0123E0230F2D3720F40196A11D65
:100A7000B11D05C026E8230F0296A11DB11D2093CC
:100A80005D0180935E0190935F01A0936001B0933C
:100A900061018091620190916301A0916401B09124
:100AA00065010196A11DB11D8093620190936301C0
:100AB000A0936401B0936501BF91AF919F918F9115
:100AC0003F912F910F900FBE0F901F9018953FB739
:100AD000F8948091620190916301A0916401B091BA
:100AE000650126B5A89B05C02F3F19F00196A11DF1
:100AF000B11D3FBF6627782F892F9A2F620F711D76
:100B0000811D911D42E0660F771F881F991F4A952E
:100B1000D1F708958F929F92AF92BF92CF92DF92BA
:100B2000EF92FF926B017C010E9467054B015C0113
:100B3000C114D104E104F104F1F00E9473090E9490
:100B40006705681979098A099B09683E7340810520
:100B5000910570F321E0C21AD108E108F10888EE8E
:100B6000880E83E0981EA11CB11CC114D104E104BD
:100B7000F10429F7DDCFFF90EF90DF90CF90BF9089
:100B8000AF909F908F900895789484B5826084BDD3
:100B900084B5816084BD85B5826085BD85B5816081
:100BA00085BDEEE6F0E0808181608083E1E8F0E0E1
:100BB0001082808182608083808181608083E0E810
:100BC000F0E0808181608083E1EBF0E080818460EF
:100BD0008083E0EBF0E0808181608083EAE7F0E0F1
:100BE0008081846080838081826080838081816055
:100BF00080838081806880831092C1000895833053
:100C000081F028F4813099F08230A1F00895873086
:100C1000A9F08830B9F08430D1F4809180008F7DC4
:100C200003C0809180008F7780938000089584B501
:100C30008F7702C084B58F7D84BD08958091B00008
:100C40008F7703C08091B0008F7D8093B0000895AE
:100C5000CF93DF9390E0FC01E055FF4F2491FC011E
:100C6000EC53FF4F8491882349F190E0880F991F3E
:100C7000FC01E451FF4FA591B4918E519F4FFC01AF
:100C8000C591D4919FB7611108C0F8948C912095BB
:100C900082238C93888182230AC0623051F4F894B5
:100CA0008C91322F309583238C938881822B88837B
:100CB00004C0F8948C91822B8C939FBFDF91CF91CD
:100CC00008950F931F93CF93DF931F92CDB7DEB795
:100CD000282F30E0F901E456FF4F8491F901E055E7
:100CE000FF4F1491F901EC53FF4F04910023C9F019
:100CF000882321F069830E94FF056981E02FF0E0DD
:100D0000EE0FFF1FEE51FF4FA591B4919FB7F894DE
:100D10008C91611103C01095812301C0812B8C93AC
:100D20009FBF0F90DF91CF911F910F910895CF93A7
:100D3000DF93282F30E0F901E456FF4F8491F90149
:100D4000E055FF4FD491F901EC53FF4FC491CC23F0
:100D500091F081110E94FF05EC2FF0E0EE0FFF1FD4
:100D6000E852FF4FA591B4912C912D2381E090E0A2
:100D700021F480E002C080E090E0DF91CF910895FF
:100D8000FC01818D228D90E0805C9F4F821B910938
:100D90008F7399270895FC01918D828D981731F0FA
:100DA000828DE80FF11D858D90E008958FEF9FEF04
:100DB0000895FC01918D828D981761F0828DDF017D
:100DC000A80FB11D5D968C91928D9F5F9F73928F3E
:100DD00090E008958FEF9FEF08958DE598E0892BBF
:100DE00049F080E090E0892B29F00E945D08811194
:100DF0000C9400000895FC01848DDF01A80FB11D43
:100E0000A35ABF4F2C91848D90E001968F73992740
:100E1000848FA689B7892C93A089B1898C9180642D
:100E20008C93938D848D981306C00288F389E02DEE
:100E300080818F7D80830895CF93DF93EC01888D2F
:100E40008823C9F0EA89FB89808185FD05C0A889CE
:100E5000B9898C9186FD0FC00FB607FCF5CF808154
:100E600085FFF2CFA889B9898C9185FFEDCFCE019E
:100E70000E94FB06E7CFDF91CF910895CF92DF92DA
:100E8000FF920F931F93CF93DF931F92CDB7DEB7DF
:100E90006C0181E0D60158968C9358975B969C9193
:100EA0005B975C968C915C97981307C05096ED9178
:100EB000FC915197808185FD2EC0F601038D10E0D5
:100EC0000F5F1F4F0F731127F02EF601848DF8125C
:100ED00011C00FB607FCF9CFD6015096ED91FC91E9
:100EE0005197808185FFF1CFC60169830E94FB067F
:100EF0006981EBCF838DE80FF11DE35AFF4F6083CB
:100F0000D6015B960C935B975296ED91FC915397AB
:100F1000808180620CC0D6015696ED91FC91579766
:100F200060835096ED91FC9151978081806480831D
:100F300081E090E00F90DF91CF911F910F91FF9092
:100F4000DF90CF900895BF92CF92DF92EF92FF9201
:100F5000CF93DF93EC016A017B01B22EE889F98916
:100F600082E08083411581EE580761057105A1F08B
:100F700060E079E08DE390E0A70196010E9474099A
:100F800021503109410951095695479537952795C3
:100F9000211580E1380798F0E889F989108260E826
:100FA00074E88EE190E0A70196010E947409215037
:100FB0003109410951095695479537952795EC8593
:100FC000FD853083EE85FF852083188EEC89FD89B1
:100FD000B082EA89FB89808180618083EA89FB890C
:100FE000808188608083EA89FB8980818068808332
:100FF000EA89FB8980818F7D8083DF91CF91FF908B
:10100000EF90DF90CF90BF9008951F920F920FB690
:101010000F9211242F938F939F93EF93FF93E0915F
:101020007601F09177018081E0917C01F0917D0162
:1010300082FD12C0908180917F018F5F8F7320911C
:101040008001821751F0E0917F01F0E0EA59FE4FF4
:10105000958F80937F0101C08081FF91EF919F91D7
:101060008F912F910F900FBE0F901F9018951F9288
:101070000F920FB60F9211242F933F934F935F93CC
:101080006F937F938F939F93AF93BF93EF93FF9350
:1010900086E691E00E94FB06FF91EF91BF91AF9130
:1010A0009F918F917F916F915F914F913F912F9180
:1010B0000F900FBE0F901F90189586E691E00E944A
:1010C000C00621E0892B09F420E0822F08951092B8
:1010D00069011092680188EE93E0A0E0B0E080938F
:1010E0006A0190936B01A0936C01B0936D0180E253
:1010F00091E0909367018093660185EC90E0909376
:1011000073018093720184EC90E090937501809359
:10111000740180EC90E0909377018093760181ECEC
:1011200090E0909379018093780182EC90E0909325
:101130007B0180937A0186EC90E090937D0180930F
:101140007C0110927F011092800110928101109217
:1011500082010895CF92DF92EF92FF920F931F9337
:10116000CF93DF937C016A01EB0100E010E00C15E6
:101170001D0571F06991D701ED91FC910190F0810D
:10118000E02DC7010995892B19F00F5F1F4FEFCF95
:10119000C801DF91CF911F910F91FF90EF90DF90E9
:1011A000CF9008956115710581F0DB010D9000204D
:1011B000E9F7AD0141505109461B570BDC01ED9198
:1011C000FC910280F381E02D099480E090E0089585
:1011D0000C94D2086CE271E00C94D2080F931F9328
:1011E000CF93DF93EC010E94D2088C01CE010E94C4
:1011F000EA08800F911FDF91CF911F910F91089501
:101200008F929F92AF92BF92DF92EF92FF920F93D5
:101210001F93CF93DF93CDB7DEB7A1970FB6F894A6
:10122000DEBF0FBECDBF7C01F42FD52ECB0119A29E
:10123000223008F42AE08E010F5D1F4F822E912C80
:10124000A12CB12C6F2F7D2DA50194010E94740952
:10125000F22FD32ECA01015011096A3014F4E0E3D1
:1012600001C0E7E3E60FD801EC93232B242B252BB9
:1012700049F7B801C7010E94D208A1960FB6F894A9
:10128000DEBF0FBECDBFDF91CF911F910F91FF90B9
:10129000EF90DF90BF90AF909F908F9008952115B1
:1012A000310541F4DC01ED91FC910190F081E02DDC
:1012B000642F09940C9400099A01462F50E060E0D5
:1012C00070E00C944F0908950E94C4050E946309C0
:1012D0000E94A700CDEED6E00E94C6002097E1F361
:1012E0000E94ED06F9CF0895A1E21A2EAA1BBB1B9E
:1012F000FD010DC0AA1FBB1FEE1FFF1FA217B307E2
:10130000E407F50720F0A21BB30BE40BF50B661FF7
:10131000771F881F991F1A9469F7609570958095BB
:1013200090959B01AC01BD01CF010895EE0FFF1F09
:0C1330000590F491E02D0994F894FFCF93
:10133C00447A69656E20646F6272790049443A2080
:10134C00002020446174613A20003000000000004D
:10135C003E07AA08C006D906CB061C070D0A006E6C
:0E136C00616E00696E66006F7666002E0000EE
:107E0000112484B714BE81FFF0D085E080938100F7
:107E100082E08093C00088E18093C10086E0809377
:107E2000C20080E18093C4008EE0C9D0259A86E02C
:107E300020E33CEF91E0309385002093840096BBD3
:107E4000B09BFECF1D9AA8958150A9F7CC24DD24C4
:107E500088248394B5E0AB2EA1E19A2EF3E0BF2EE7
:107E6000A2D0813461F49FD0082FAFD0023811F036
:107E7000013811F484E001C083E08DD089C08234E0
:107E800011F484E103C0853419F485E0A6D080C0E4
:107E9000853579F488D0E82EFF2485D0082F10E0AE
:107EA000102F00270E291F29000F111F8ED06801E7
:107EB0006FC0863521F484E090D080E0DECF843638
:107EC00009F040C070D06FD0082F6DD080E0C81688
:107ED00080E7D80618F4F601B7BEE895C0E0D1E017
:107EE00062D089930C17E1F7F0E0CF16F0E7DF06D8
:107EF00018F0F601B7BEE89568D007B600FCFDCFD4
:107F0000A601A0E0B1E02C9130E011968C91119780
:107F100090E0982F8827822B932B1296FA010C0160
:107F200087BEE89511244E5F5F4FF1E0A038BF0790
:107F300051F7F601A7BEE89507B600FCFDCF97BE46
:107F4000E89526C08437B1F42ED02DD0F82E2BD052
:107F50003CD0F601EF2C8F010F5F1F4F84911BD097
:107F6000EA94F801C1F70894C11CD11CFA94CF0C13
:107F7000D11C0EC0853739F428D08EE10CD085E9AC
:107F80000AD08FE07ACF813511F488E018D01DD067
:107F900080E101D065CF982F8091C00085FFFCCF94
:107FA0009093C60008958091C00087FFFCCF809118
:107FB000C00084FD01C0A8958091C6000895E0E648
:107FC000F0E098E1908380830895EDDF803219F02E
:107FD00088E0F5DFFFCF84E1DECF1F93182FE3DFCA
:107FE0001150E9F7F2DF1F91089580E0E8DFEE27F6
:047FF000FF270994CA
:027FFE00040479
:0400000300007E007B
:00000001FF
